{
  "contractName": "Remittance",
  "abi": [
    {
      "constant": true,
      "inputs": [
        {
          "name": "",
          "type": "bytes32"
        }
      ],
      "name": "deposits",
      "outputs": [
        {
          "name": "depositor",
          "type": "address"
        },
        {
          "name": "expiry",
          "type": "uint256"
        },
        {
          "name": "amount",
          "type": "uint256"
        }
      ],
      "payable": false,
      "stateMutability": "view",
      "type": "function"
    },
    {
      "constant": false,
      "inputs": [
        {
          "name": "newState",
          "type": "uint8"
        }
      ],
      "name": "setState",
      "outputs": [],
      "payable": false,
      "stateMutability": "nonpayable",
      "type": "function"
    },
    {
      "constant": true,
      "inputs": [],
      "name": "getOwner",
      "outputs": [
        {
          "name": "",
          "type": "address"
        }
      ],
      "payable": false,
      "stateMutability": "view",
      "type": "function"
    },
    {
      "constant": false,
      "inputs": [
        {
          "name": "_newOwner",
          "type": "address"
        }
      ],
      "name": "changeOwner",
      "outputs": [],
      "payable": false,
      "stateMutability": "nonpayable",
      "type": "function"
    },
    {
      "constant": true,
      "inputs": [],
      "name": "state",
      "outputs": [
        {
          "name": "",
          "type": "uint8"
        }
      ],
      "payable": false,
      "stateMutability": "view",
      "type": "function"
    },
    {
      "constant": true,
      "inputs": [
        {
          "name": "",
          "type": "address"
        }
      ],
      "name": "feeBalance",
      "outputs": [
        {
          "name": "",
          "type": "uint256"
        }
      ],
      "payable": false,
      "stateMutability": "view",
      "type": "function"
    },
    {
      "anonymous": false,
      "inputs": [
        {
          "indexed": true,
          "name": "sender",
          "type": "address"
        },
        {
          "indexed": true,
          "name": "amount",
          "type": "uint256"
        },
        {
          "indexed": false,
          "name": "time",
          "type": "uint256"
        },
        {
          "indexed": false,
          "name": "expiry",
          "type": "uint256"
        }
      ],
      "name": "LogDeposit",
      "type": "event"
    },
    {
      "anonymous": false,
      "inputs": [
        {
          "indexed": true,
          "name": "sender",
          "type": "address"
        },
        {
          "indexed": false,
          "name": "time",
          "type": "uint256"
        }
      ],
      "name": "LogFee",
      "type": "event"
    },
    {
      "anonymous": false,
      "inputs": [
        {
          "indexed": true,
          "name": "sender",
          "type": "address"
        },
        {
          "indexed": true,
          "name": "amount",
          "type": "uint256"
        }
      ],
      "name": "LogWithdrawFunds",
      "type": "event"
    },
    {
      "anonymous": false,
      "inputs": [
        {
          "indexed": true,
          "name": "sender",
          "type": "address"
        },
        {
          "indexed": true,
          "name": "amount",
          "type": "uint256"
        },
        {
          "indexed": false,
          "name": "time",
          "type": "uint256"
        }
      ],
      "name": "LogDepositorWithdraws",
      "type": "event"
    },
    {
      "anonymous": false,
      "inputs": [
        {
          "indexed": false,
          "name": "fees",
          "type": "uint256"
        },
        {
          "indexed": false,
          "name": "time",
          "type": "uint256"
        }
      ],
      "name": "LogOwnerWithdrawsFees",
      "type": "event"
    },
    {
      "anonymous": false,
      "inputs": [
        {
          "indexed": true,
          "name": "sender",
          "type": "address"
        },
        {
          "indexed": true,
          "name": "newState",
          "type": "uint8"
        }
      ],
      "name": "LogSetState",
      "type": "event"
    },
    {
      "anonymous": false,
      "inputs": [
        {
          "indexed": true,
          "name": "oldOwner",
          "type": "address"
        },
        {
          "indexed": true,
          "name": "newOwner",
          "type": "address"
        }
      ],
      "name": "LogChangeOwner",
      "type": "event"
    },
    {
      "constant": false,
      "inputs": [
        {
          "name": "_hashedPassword",
          "type": "bytes32"
        },
        {
          "name": "_expirePeriodInSeconds",
          "type": "uint256"
        }
      ],
      "name": "deposit",
      "outputs": [],
      "payable": true,
      "stateMutability": "payable",
      "type": "function"
    },
    {
      "constant": true,
      "inputs": [],
      "name": "getContractBalance",
      "outputs": [
        {
          "name": "",
          "type": "uint256"
        }
      ],
      "payable": false,
      "stateMutability": "view",
      "type": "function"
    },
    {
      "constant": true,
      "inputs": [
        {
          "name": "_shopAddress",
          "type": "address"
        },
        {
          "name": "_plainPasswordBeneficiary",
          "type": "bytes32"
        }
      ],
      "name": "generateHashedPassword",
      "outputs": [
        {
          "name": "",
          "type": "bytes32"
        }
      ],
      "payable": false,
      "stateMutability": "view",
      "type": "function"
    },
    {
      "constant": false,
      "inputs": [
        {
          "name": "_plainPasswordBeneficiary",
          "type": "bytes32"
        }
      ],
      "name": "withdrawFunds",
      "outputs": [],
      "payable": false,
      "stateMutability": "nonpayable",
      "type": "function"
    },
    {
      "constant": false,
      "inputs": [
        {
          "name": "_hashedPassword",
          "type": "bytes32"
        }
      ],
      "name": "depositorWithdraws",
      "outputs": [],
      "payable": false,
      "stateMutability": "nonpayable",
      "type": "function"
    },
    {
      "constant": false,
      "inputs": [],
      "name": "ownerWithdrawsFees",
      "outputs": [],
      "payable": false,
      "stateMutability": "nonpayable",
      "type": "function"
    }
  ],
  "bytecode": "0x6080604052336000806101000a81548173ffffffffffffffffffffffffffffffffffffffff021916908373ffffffffffffffffffffffffffffffffffffffff16021790555060008060146101000a81548160ff0219169083600281111561006257fe5b0217905550611a36806100766000396000f3006080604052600436106100ba576000357c0100000000000000000000000000000000000000000000000000000000900463ffffffff1680631d72e203146100bf5780631de26e16146100f05780633d4dff7b1461011e57806356de96db1461019d5780635a8b1b6f146101cd5780636e2b54ee1461023a5780636f9fb98a1461026b578063893d20e814610296578063916e7f98146102ed578063a6f9dae114610304578063c19d93fb14610347578063e1f3962c14610380575b600080fd5b3480156100cb57600080fd5b506100ee60048036038101908080356000191690602001909291905050506103d7565b005b61011c6004803603810190808035600019169060200190929190803590602001909291905050506107e6565b005b34801561012a57600080fd5b5061014d6004803603810190808035600019169060200190929190505050610cd1565b604051808473ffffffffffffffffffffffffffffffffffffffff1673ffffffffffffffffffffffffffffffffffffffff168152602001838152602001828152602001935050505060405180910390f35b3480156101a957600080fd5b506101cb600480360381019080803560ff169060200190929190505050610d1b565b005b3480156101d957600080fd5b5061021c600480360381019080803573ffffffffffffffffffffffffffffffffffffffff1690602001909291908035600019169060200190929190505050610f63565b60405180826000191660001916815260200191505060405180910390f35b34801561024657600080fd5b5061026960048036038101908080356000191690602001909291905050506111b1565b005b34801561027757600080fd5b506102806113d1565b6040518082815260200191505060405180910390f35b3480156102a257600080fd5b506102ab6113f0565b604051808273ffffffffffffffffffffffffffffffffffffffff1673ffffffffffffffffffffffffffffffffffffffff16815260200191505060405180910390f35b3480156102f957600080fd5b50610302611419565b005b34801561031057600080fd5b50610345600480360381019080803573ffffffffffffffffffffffffffffffffffffffff1690602001909291905050506116cc565b005b34801561035357600080fd5b5061035c6119a7565b6040518082600281111561036c57fe5b60ff16815260200191505060405180910390f35b34801561038c57600080fd5b506103c1600480360381019080803573ffffffffffffffffffffffffffffffffffffffff1690602001909291905050506119ba565b6040518082815260200191505060405180910390f35b6103df6119d2565b600160028111156103ec57fe5b600060149054906101000a900460ff16600281111561040757fe5b141515156104a3576040517f08c379a00000000000000000000000000000000000000000000000000000000081526004018080602001828103825260338152602001807f54686520636f6e74726163742069732070617573656420616e642063616e277481526020017f20626520696e746572616374656420776974680000000000000000000000000081525060400191505060405180910390fd5b600160008360001916600019168152602001908152602001600020606060405190810160405290816000820160009054906101000a900473ffffffffffffffffffffffffffffffffffffffff1673ffffffffffffffffffffffffffffffffffffffff1673ffffffffffffffffffffffffffffffffffffffff1681526020016001820154815260200160028201548152505090503373ffffffffffffffffffffffffffffffffffffffff16816000015173ffffffffffffffffffffffffffffffffffffffff16141515610603576040517f08c379a00000000000000000000000000000000000000000000000000000000081526004018080602001828103825260328152602001807f4f6e6c7920746865206465706f7369746f722063616e2072657472696576652081526020017f756e636c61696d6564206465706f73697473000000000000000000000000000081525060400191505060405180910390fd5b4281602001511015156106a4576040517f08c379a00000000000000000000000000000000000000000000000000000000081526004018080602001828103825260348152602001807f4f776e65722063616e206f6e6c79207769746864726177207768656e2074686581526020017f20646561646c696e65206861732070617373656400000000000000000000000081525060400191505060405180910390fd5b60008160400151111515610720576040517f08c379a000000000000000000000000000000000000000000000000000000000815260040180806020018281038252601f8152602001807f5468657265206973206e6f2062616c616e636520746f2077697468647261770081525060200191505060405180910390fd5b60006001600084600019166000191681526020019081526020016000206002018190555080604001513373ffffffffffffffffffffffffffffffffffffffff167fb2a9b9ae4772a5291d20da6e359f8de1cc71c66e512004b41771964be670f370426040518082815260200191505060405180910390a33373ffffffffffffffffffffffffffffffffffffffff166108fc82604001519081150290604051600060405180830381858888f193505050501580156107e1573d6000803e3d6000fd5b505050565b600080600080600060028111156107f957fe5b600060149054906101000a900460ff16600281111561081457fe5b141515610889576040517f08c379a000000000000000000000000000000000000000000000000000000000815260040180806020018281038252601f8152602001807f54686520636f6e7472616374206973206e6f74206f7065726174696f6e616c0081525060200191505060405180910390fd5b620f424034111515610903576040517f08c379a000000000000000000000000000000000000000000000000000000000815260040180806020018281038252601a8152602001807f46656520697320686967686572207468616e206465706f73697400000000000081525060200191505060405180910390fd5b600085141515156109a2576040517f08c379a00000000000000000000000000000000000000000000000000000000081526004018080602001828103825260258152602001807f45787069727920706572696f6420696e207365636f6e6473206973206d616e6481526020017f61746f727900000000000000000000000000000000000000000000000000000081525060400191505060405180910390fd5b62093a808511151515610a43576040517f08c379a00000000000000000000000000000000000000000000000000000000081526004018080602001828103825260238152602001807f446561646c696e65206578636565647320746865206d6178696d756d2065787081526020017f697279000000000000000000000000000000000000000000000000000000000081525060400191505060405180910390fd5b600073ffffffffffffffffffffffffffffffffffffffff1660016000886000191660001916815260200190815260200160002060000160009054906101000a900473ffffffffffffffffffffffffffffffffffffffff1673ffffffffffffffffffffffffffffffffffffffff16141515610b4b576040517f08c379a00000000000000000000000000000000000000000000000000000000081526004018080602001828103825260308152602001807f50617373776f7264202f2053686f7020636f6d62696e6174696f6e206861732081526020017f6265656e2075736564206265666f72650000000000000000000000000000000081525060400191505060405180910390fd5b620f42403403935042850192506001600087600019166000191681526020019081526020016000209150338260000160006101000a81548173ffffffffffffffffffffffffffffffffffffffff021916908373ffffffffffffffffffffffffffffffffffffffff1602179055508282600101819055508382600201819055503373ffffffffffffffffffffffffffffffffffffffff167f1cdf74906ad7d5c402e19a20dbe986befe937e6768a0722bdb18918cdba45c4a426040518082815260200191505060405180910390a2610c206113f0565b9050620f4240600260008373ffffffffffffffffffffffffffffffffffffffff1673ffffffffffffffffffffffffffffffffffffffff16815260200190815260200160002060008282540192505081905550343373ffffffffffffffffffffffffffffffffffffffff167f4b2bcb0ca50531683faa51870e1018aa0d7272c7f2acc5399389b0c0493865d94286604051808381526020018281526020019250505060405180910390a3505050505050565b60016020528060005260406000206000915090508060000160009054906101000a900473ffffffffffffffffffffffffffffffffffffffff16908060010154908060020154905083565b6000809054906101000a900473ffffffffffffffffffffffffffffffffffffffff1673ffffffffffffffffffffffffffffffffffffffff163373ffffffffffffffffffffffffffffffffffffffff16141515610e05576040517f08c379a00000000000000000000000000000000000000000000000000000000081526004018080602001828103825260228152602001807f4f6e6c79206f776e65722063616e20706572666f726d2074686973206163746981526020017f6f6e00000000000000000000000000000000000000000000000000000000000081525060400191505060405180910390fd5b600280811115610e1157fe5b600060149054906101000a900460ff166002811115610e2c57fe5b14151515610eee576040517f08c379a00000000000000000000000000000000000000000000000000000000081526004018080602001828103825260438152602001807f54686520636f6e747261637420697320646561637469766174656420616e642081526020017f63616e2774206265206d616465206f7065726174696f6e616c206f722070617581526020017f736564000000000000000000000000000000000000000000000000000000000081525060600191505060405180910390fd5b80600060146101000a81548160ff02191690836002811115610f0c57fe5b0217905550806002811115610f1d57fe5b3373ffffffffffffffffffffffffffffffffffffffff167f8443aae512b274bfa1e5d65661bd8f0b4ffbc66eee3556711cce411fcf30478460405160405180910390a350565b6000808373ffffffffffffffffffffffffffffffffffffffff1614151515610ff3576040517f08c379a00000000000000000000000000000000000000000000000000000000081526004018080602001828103825260198152602001807f53686f702061646472657373206973206d616e6461746f72790000000000000081525060200191505060405180910390fd5b6000600102826000191614151515611099576040517f08c379a00000000000000000000000000000000000000000000000000000000081526004018080602001828103825260218152602001807f42656e69666963696172792070617373776f7264206973206d616e6461746f7281526020017f790000000000000000000000000000000000000000000000000000000000000081525060400191505060405180910390fd5b308383604051602001808473ffffffffffffffffffffffffffffffffffffffff1673ffffffffffffffffffffffffffffffffffffffff166c010000000000000000000000000281526014018373ffffffffffffffffffffffffffffffffffffffff1673ffffffffffffffffffffffffffffffffffffffff166c01000000000000000000000000028152601401826000191660001916815260200193505050506040516020818303038152906040526040518082805190602001908083835b60208310151561117c5780518252602082019150602081019050602083039250611157565b6001836020036101000a0380198251168184511680821785525050505050509050019150506040518091039020905092915050565b600080600160028111156111c157fe5b600060149054906101000a900460ff1660028111156111dc57fe5b14151515611278576040517f08c379a00000000000000000000000000000000000000000000000000000000081526004018080602001828103825260338152602001807f54686520636f6e74726163742069732070617573656420616e642063616e277481526020017f20626520696e746572616374656420776974680000000000000000000000000081525060400191505060405180910390fd5b6112823384610f63565b915060016000836000191660001916815260200190815260200160002060020154905060008111151561131d576040517f08c379a000000000000000000000000000000000000000000000000000000000815260040180806020018281038252601f8152602001807f5468657265206973206e6f2062616c616e636520746f2077697468647261770081525060200191505060405180910390fd5b600060016000846000191660001916815260200190815260200160002060020181905550803373ffffffffffffffffffffffffffffffffffffffff167f333d9f35320f28a9518fc6083975ac7d7465f020712cda7608ca073ea651f26460405160405180910390a33373ffffffffffffffffffffffffffffffffffffffff166108fc829081150290604051600060405180830381858888f193505050501580156113cb573d6000803e3d6000fd5b50505050565b60003073ffffffffffffffffffffffffffffffffffffffff1631905090565b60008060009054906101000a900473ffffffffffffffffffffffffffffffffffffffff16905090565b60006001600281111561142857fe5b600060149054906101000a900460ff16600281111561144357fe5b141515156114df576040517f08c379a00000000000000000000000000000000000000000000000000000000081526004018080602001828103825260338152602001807f54686520636f6e74726163742069732070617573656420616e642063616e277481526020017f20626520696e746572616374656420776974680000000000000000000000000081525060400191505060405180910390fd5b6000600260003373ffffffffffffffffffffffffffffffffffffffff1673ffffffffffffffffffffffffffffffffffffffff168152602001908152602001600020541115156115bc576040517f08c379a00000000000000000000000000000000000000000000000000000000081526004018080602001828103825260238152602001807f5468657265206973206e6f206665652062616c616e636520746f20776974686481526020017f726177000000000000000000000000000000000000000000000000000000000081525060400191505060405180910390fd5b600260003373ffffffffffffffffffffffffffffffffffffffff1673ffffffffffffffffffffffffffffffffffffffff1681526020019081526020016000205490506000600260003373ffffffffffffffffffffffffffffffffffffffff1673ffffffffffffffffffffffffffffffffffffffff168152602001908152602001600020819055507ffce49ced370490148891931ad4410c6928a77b5e7b812c33f0d1967ac3fa6d178142604051808381526020018281526020019250505060405180910390a13373ffffffffffffffffffffffffffffffffffffffff166108fc829081150290604051600060405180830381858888f193505050501580156116c8573d6000803e3d6000fd5b5050565b6000809054906101000a900473ffffffffffffffffffffffffffffffffffffffff1673ffffffffffffffffffffffffffffffffffffffff163373ffffffffffffffffffffffffffffffffffffffff161415156117b6576040517f08c379a00000000000000000000000000000000000000000000000000000000081526004018080602001828103825260228152602001807f4f6e6c79206f776e65722063616e20706572666f726d2074686973206163746981526020017f6f6e00000000000000000000000000000000000000000000000000000000000081525060400191505060405180910390fd5b60008173ffffffffffffffffffffffffffffffffffffffff1614151515611845576040517f08c379a00000000000000000000000000000000000000000000000000000000081526004018080602001828103825260138152602001807f4e6f20616464726573732070726f76696465640000000000000000000000000081525060200191505060405180910390fd5b6000809054906101000a900473ffffffffffffffffffffffffffffffffffffffff1673ffffffffffffffffffffffffffffffffffffffff168173ffffffffffffffffffffffffffffffffffffffff161415151561190a576040517f08c379a00000000000000000000000000000000000000000000000000000000081526004018080602001828103825260208152602001807f43757272656e74206f776e65722063616e2774206265206e6577206f776e657281525060200191505060405180910390fd5b806000806101000a81548173ffffffffffffffffffffffffffffffffffffffff021916908373ffffffffffffffffffffffffffffffffffffffff1602179055508073ffffffffffffffffffffffffffffffffffffffff163373ffffffffffffffffffffffffffffffffffffffff167f96b36bedce75759b139551b10b3d2e1e863dbbfbdc30f9f9e374bb24431d5da260405160405180910390a350565b600060149054906101000a900460ff1681565b60026020528060005260406000206000915090505481565b606060405190810160405280600073ffffffffffffffffffffffffffffffffffffffff168152602001600081526020016000815250905600a165627a7a723058207ddee16626549b1c0ca6bb12dca3b733f217cc51efc2d3b80eb878a68e16e5620029",
  "source": "pragma solidity 0.4.24;\n\nimport \"./Stoppable.sol\";\n\ncontract Remittance is Stoppable {\n\n    //State Variables\n    uint256 constant maxExpiryInSeconds = 604800;\n    uint256 constant fee = 1000000;\n    \n    //All events to be logged\n    event LogDeposit(address indexed sender, uint indexed amount, uint time, uint expiry);\n    event LogFee(address indexed sender, uint time);\n    event LogWithdrawFunds (address indexed sender, uint indexed amount);\n    event LogDepositorWithdraws(address indexed sender, uint indexed amount, uint time);\n    event LogOwnerWithdrawsFees(uint fees, uint time);\n    \n    //Struct that contains the users of the contract\n    struct Deposit {\n        address depositor;\n        uint256 expiry;\n        uint256 amount;\n    }\n    \n    //Mapping of deposits\n    mapping(bytes32 => Deposit) public deposits;\n    \n    //Mapping of fees\n    mapping(address => uint256) public feeBalance;\n    \n    //Allow for deposits of Ether to be made. Deposists will be stored against a unique hash. \n    function deposit (bytes32 _hashedPassword, uint256 _expirePeriodInSeconds) payable public onlyIfRunning {\n        //Verify that the message value is higher than the fee \n        require(msg.value > fee, \"Fee is higher than deposit\");\n        //Verify that an expiry period is entered \n        require(_expirePeriodInSeconds != 0, \"Expiry period in seconds is mandatory\");\n        //Verify that the deadline does not exceed the maximum expiry\n        require(_expirePeriodInSeconds <= maxExpiryInSeconds, \"Deadline exceeds the maximum expiry\");\n        //Verify that the storage hash hasn't been used before\n        require(deposits[_hashedPassword].depositor == address(0), \"Password / Shop combination has been used before\");\n        //Take a fee out of the msg.value \n        uint256 amount = msg.value - fee;\n        //Set expiry\n        uint256 expiry = _expirePeriodInSeconds + now;\n        //Write the arguments to storage\n        Deposit storage currentDeposit = deposits[_hashedPassword];\n        currentDeposit.depositor = msg.sender;\n        currentDeposit.expiry = expiry;\n        currentDeposit.amount = amount;\n        //Create log for fee payment\n        emit LogFee (msg.sender, now);\n        //Increase the fee balance of the contract owner\n        address owner = getOwner();\n        feeBalance[owner] += fee;\n        //Create log\n        emit LogDeposit (msg.sender, msg.value, now, expiry);\n    }\n    \n    //Retuns the balance in Ether for the contract - Here just for Remix purposes\n    function getContractBalance() public view returns (uint256) { \n        return address(this).balance; \n    }\n    \n    //Function that allows the passwords to be set - Off chain\n    function generateHashedPassword(address _shopAddress, bytes32 _plainPasswordBeneficiary) view public returns (bytes32) {\n        //Verify that the shop address can't be null\n        require(_shopAddress != 0, \"Shop address is mandatory\");\n        //Verify that the password can't be null\n        require(_plainPasswordBeneficiary != 0, \"Benificiary password is mandatory\");\n        //Hash it all\n        return keccak256(abi.encodePacked(this, _shopAddress, _plainPasswordBeneficiary));\n    }\n    \n    //Withdraw all funds that the depositor has deposited for the benificiary. \n    function withdrawFunds (bytes32 _plainPasswordBeneficiary) public onlyIfNotPaused {\n        //Calculate the hashed password\n        bytes32 hashedPassword = generateHashedPassword(msg.sender, _plainPasswordBeneficiary);\n        //Write storage record to memory for re-usage\n        uint256 depositAmount = deposits[hashedPassword].amount;\n        //Verify that stored deposit amount is larger than zero\n        require(depositAmount > 0, \"There is no balance to withdraw\");\n        //Set amount to zero\n        deposits[hashedPassword].amount = 0;\n        //Create log\n        emit LogWithdrawFunds (msg.sender, depositAmount);\n        //transfer the funds to the msg.sender so he/she can pay out to the benificiary\n        address(msg.sender).transfer(depositAmount);\n    }\n    \n    //Allow depositor to retrieve funds if not withdrawn by benifiary after the withdrawal expiry period has passed\n    function depositorWithdraws (bytes32 _hashedPassword) public onlyIfNotPaused {\n        //Write storage record to memory for re-usage\n        Deposit memory depositMem = deposits[_hashedPassword];\n        //Verify that the msg.sender is the depositor\n        require(depositMem.depositor == msg.sender, \"Only the depositor can retrieve unclaimed deposits\");\n        //Verify that it is past the deadline\n        require(depositMem.expiry < now, \"Owner can only withdraw when the deadline has passed\");\n        //Verify that stored deposit amount is larger than zero\n        require(depositMem.amount > 0, \"There is no balance to withdraw\");\n        //Set amount to zero\n        deposits[_hashedPassword].amount = 0;\n        //Create log\n        emit LogDepositorWithdraws (msg.sender, depositMem.amount, now);\n        //Transfer funds back to owner\n        address(msg.sender).transfer(depositMem.amount);\n    }\n    \n    //Function that allows any user who is or has been an owner, to withdraw their collected fees\n    function ownerWithdrawsFees () public onlyIfNotPaused {\n        //Verify there are fees to withdraw\n        require(feeBalance[msg.sender] > 0, \"There is no fee balance to withdraw\");\n        //Set balance to 0 \n        uint feesToWithdraw = feeBalance[msg.sender];\n        feeBalance[msg.sender] = 0;\n        //Create log\n        emit LogOwnerWithdrawsFees (feesToWithdraw, now);\n        //Transer fees to msg.sender\n        address(msg.sender).transfer(feesToWithdraw);\n    }\n  }",
  "sourcePath": "/home/richard/workspace/Remittance/contracts/Remittance.sol",
  "compiler": {
    "name": "solc",
    "version": "0.4.24+commit.e67f0147.Emscripten.clang"
  },
  "schemaVersion": "2.0.1",
  "updatedAt": "2019-02-27T20:35:04.221Z"
}