{
  "contractName": "Stoppable",
  "abi": [
    {
      "constant": true,
      "inputs": [],
      "name": "getOwner",
      "outputs": [
        {
          "name": "",
          "type": "address"
        }
      ],
      "payable": false,
      "stateMutability": "view",
      "type": "function"
    },
    {
      "constant": false,
      "inputs": [
        {
          "name": "_newOwner",
          "type": "address"
        }
      ],
      "name": "changeOwner",
      "outputs": [],
      "payable": false,
      "stateMutability": "nonpayable",
      "type": "function"
    },
    {
      "constant": true,
      "inputs": [],
      "name": "state",
      "outputs": [
        {
          "name": "",
          "type": "uint8"
        }
      ],
      "payable": false,
      "stateMutability": "view",
      "type": "function"
    },
    {
      "inputs": [],
      "payable": false,
      "stateMutability": "nonpayable",
      "type": "constructor"
    },
    {
      "anonymous": false,
      "inputs": [
        {
          "indexed": true,
          "name": "sender",
          "type": "address"
        },
        {
          "indexed": true,
          "name": "newState",
          "type": "uint8"
        }
      ],
      "name": "LogSetState",
      "type": "event"
    },
    {
      "anonymous": false,
      "inputs": [
        {
          "indexed": true,
          "name": "oldOwner",
          "type": "address"
        },
        {
          "indexed": true,
          "name": "newOwner",
          "type": "address"
        }
      ],
      "name": "LogChangeOwner",
      "type": "event"
    },
    {
      "constant": false,
      "inputs": [
        {
          "name": "newState",
          "type": "uint8"
        }
      ],
      "name": "setState",
      "outputs": [],
      "payable": false,
      "stateMutability": "nonpayable",
      "type": "function"
    }
  ],
  "bytecode": "0x608060405234801561001057600080fd5b50336000806101000a81548173ffffffffffffffffffffffffffffffffffffffff021916908373ffffffffffffffffffffffffffffffffffffffff16021790555060008060146101000a81548160ff0219169083600281111561006f57fe5b02179055506106f5806100836000396000f300608060405260043610610062576000357c0100000000000000000000000000000000000000000000000000000000900463ffffffff16806356de96db14610067578063893d20e814610097578063a6f9dae1146100ee578063c19d93fb14610131575b600080fd5b34801561007357600080fd5b50610095600480360381019080803560ff16906020019092919050505061016a565b005b3480156100a357600080fd5b506100ac6103b2565b604051808273ffffffffffffffffffffffffffffffffffffffff1673ffffffffffffffffffffffffffffffffffffffff16815260200191505060405180910390f35b3480156100fa57600080fd5b5061012f600480360381019080803573ffffffffffffffffffffffffffffffffffffffff1690602001909291905050506103db565b005b34801561013d57600080fd5b506101466106b6565b6040518082600281111561015657fe5b60ff16815260200191505060405180910390f35b6000809054906101000a900473ffffffffffffffffffffffffffffffffffffffff1673ffffffffffffffffffffffffffffffffffffffff163373ffffffffffffffffffffffffffffffffffffffff16141515610254576040517f08c379a00000000000000000000000000000000000000000000000000000000081526004018080602001828103825260228152602001807f4f6e6c79206f776e65722063616e20706572666f726d2074686973206163746981526020017f6f6e00000000000000000000000000000000000000000000000000000000000081525060400191505060405180910390fd5b60028081111561026057fe5b600060149054906101000a900460ff16600281111561027b57fe5b1415151561033d576040517f08c379a00000000000000000000000000000000000000000000000000000000081526004018080602001828103825260438152602001807f54686520636f6e747261637420697320646561637469766174656420616e642081526020017f63616e2774206265206d616465206f7065726174696f6e616c206f722070617581526020017f736564000000000000000000000000000000000000000000000000000000000081525060600191505060405180910390fd5b80600060146101000a81548160ff0219169083600281111561035b57fe5b021790555080600281111561036c57fe5b3373ffffffffffffffffffffffffffffffffffffffff167f8443aae512b274bfa1e5d65661bd8f0b4ffbc66eee3556711cce411fcf30478460405160405180910390a350565b60008060009054906101000a900473ffffffffffffffffffffffffffffffffffffffff16905090565b6000809054906101000a900473ffffffffffffffffffffffffffffffffffffffff1673ffffffffffffffffffffffffffffffffffffffff163373ffffffffffffffffffffffffffffffffffffffff161415156104c5576040517f08c379a00000000000000000000000000000000000000000000000000000000081526004018080602001828103825260228152602001807f4f6e6c79206f776e65722063616e20706572666f726d2074686973206163746981526020017f6f6e00000000000000000000000000000000000000000000000000000000000081525060400191505060405180910390fd5b60008173ffffffffffffffffffffffffffffffffffffffff1614151515610554576040517f08c379a00000000000000000000000000000000000000000000000000000000081526004018080602001828103825260138152602001807f4e6f20616464726573732070726f76696465640000000000000000000000000081525060200191505060405180910390fd5b6000809054906101000a900473ffffffffffffffffffffffffffffffffffffffff1673ffffffffffffffffffffffffffffffffffffffff168173ffffffffffffffffffffffffffffffffffffffff1614151515610619576040517f08c379a00000000000000000000000000000000000000000000000000000000081526004018080602001828103825260208152602001807f43757272656e74206f776e65722063616e2774206265206e6577206f776e657281525060200191505060405180910390fd5b806000806101000a81548173ffffffffffffffffffffffffffffffffffffffff021916908373ffffffffffffffffffffffffffffffffffffffff1602179055508073ffffffffffffffffffffffffffffffffffffffff163373ffffffffffffffffffffffffffffffffffffffff167f96b36bedce75759b139551b10b3d2e1e863dbbfbdc30f9f9e374bb24431d5da260405160405180910390a350565b600060149054906101000a900460ff16815600a165627a7a72305820c72a4c024538a803eaa893275b36ee977e39bf7a416ad62324484bd91cc282a80029",
  "source": "pragma solidity 0.4.24;\n\nimport  \"./Owned.sol\";\n\ncontract Stoppable is Owned {\n     \n    //Global variables \n    RemittanceState public state; \n    \n    //Defining the possible states of the contract\n    enum RemittanceState {\n        Operational,\n        Paused,\n        Deactivated\n    }\n    \n    //Constructor, setting initial state upon contract creation\n    constructor() public {\n       state = RemittanceState.Operational;\n    }  \n    \n    //Event logs for when a state changes\n    event LogSetState(address indexed sender, RemittanceState indexed newState);\n    \n    //Modifiers\n    modifier onlyIfRunning {\n        require(state == RemittanceState.Operational, \"The contract is not operational\");\n        _;\n    }\n    \n    modifier onlyIfNotPaused {\n        require(state != RemittanceState.Paused, \"The contract is paused and can't be interacted with\");\n        _;\n    }\n    \n    //Function that allows owner to change the state of the contract\n    function setState(RemittanceState newState) public onlyOwner {\n        //Verify if the state is Deactivated, if so, don't allow update to the state;\n        require(state != RemittanceState.Deactivated, \"The contract is deactivated and can't be made operational or paused\");\n        //Set the state of the Contract\n        state = newState;\n        //Create logs\n        emit LogSetState(msg.sender, newState);\n    }\n}",
  "sourcePath": "/home/richard/workspace/Remittance/contracts/Stoppable.sol",
  "compiler": {
    "name": "solc",
    "version": "0.4.24+commit.e67f0147.Emscripten.clang"
  },
  "schemaVersion": "2.0.1",
  "updatedAt": "2019-02-27T20:35:04.223Z"
}